{
  "in_active_chain": true,
  "txid": "13b16ff9b811db0a4639033aae0e44795c288be5afe95e8df3a529414275bbb5",
  "hash": "ba1d855dcd96242d00d4b25a42682a760ff2d73bfd2318e7f556f5ec36d14d60",
  "version": 2,
  "size": 247,
  "vsize": 166,
  "weight": 661,
  "locktime": 2106641,
  "vin": [
    {
      "txid": "91624f12a6db410743c541331627841f67f2193a9a439eac5d33d39782aac654",
      "vout": 0,
      "scriptSig": {
        "asm": "00143870135ec6d6522d40c3cd61beb6afcbd0708b9a",
        "hex": "1600143870135ec6d6522d40c3cd61beb6afcbd0708b9a"
      },
      "txinwitness": [
        "304402202786707466d93e1b999297c052112b39dce098f90755c58907a1847d1d4df789022065e48008caa5603a30355913873ed8a2dc0560b15374084515bae937c089859601",
        "023aa95af823e3d30c2cf70c0959b01d095b9df8b6aeccdc7d928a8d0cd16bd499"
      ],
      "sequence": 4294967294
    }
  ],
  "vout": [
    {
      "value": 39.86608341,
      "n": 0,
      "scriptPubKey": {
        "asm": "OP_HASH160 0deebcd1b4acbd5b82715e0fef56a976dfce2a84 OP_EQUAL",
        "hex": "a9140deebcd1b4acbd5b82715e0fef56a976dfce2a8487",
        "address": "2MtWtmZA7zaXwB46riu7ZF1oPMoUYATMwM5",
        "type": "scripthash"
      }
    },
    {
      "value": 0.01712593,
      "n": 1,
      "scriptPubKey": {
        "asm": "OP_HASH160 5d554c92ebb37a58367aa17d1fd2acde8e8df81c OP_EQUAL",
        "hex": "a9145d554c92ebb37a58367aa17d1fd2acde8e8df81c87",
        "address": "2N1kj1oyWysiMAYzF3VYfbomcw2QJPa4Tkk",
        "type": "scripthash"
      }
    }
  ],
  "hex": "0200000000010154c6aa8297d3335dac9e439a3a19f2671f8427163341c5430741dba6124f629100000000171600143870135ec6d6522d40c3cd61beb6afcbd0708b9afeffffff02d5d09eed0000000017a9140deebcd1b4acbd5b82715e0fef56a976dfce2a8487d1211a000000000017a9145d554c92ebb37a58367aa17d1fd2acde8e8df81c870247304402202786707466d93e1b999297c052112b39dce098f90755c58907a1847d1d4df789022065e48008caa5603a30355913873ed8a2dc0560b15374084515bae937c08985960121023aa95af823e3d30c2cf70c0959b01d095b9df8b6aeccdc7d928a8d0cd16bd49911252000",
  "blockhash": "00000000000000240a21658d4ee23baa4dc2088ad0a81f351bc93106288a2fba",
  "confirmations": 1,
  "time": 1639064637,
  "blocktime": 1639064637
}
